:020000040800F2
:10C800000080022035E000086DDE000873DE0008BD
:10C8100079DE00087FDE000885DE000800000000E9
:10C820000000000000000000000000008BDE000897
:10C8300099DE000800000000A7DE0008B5DE000851
:10C8400085E0000885E0000885E0000885E0000834
:10C8500085E0000885E0000885E0000885E0000824
:10C8600085E0000885E0000885E0000885E0000814
:10C8700085E0000885E0000885E0000885E0000804
:10C8800085E0000885E0000885E0000885E00008F4
:10C8900085E0000885E0000885E0000885E00008E4
:10C8A00085E0000885E0000885E0000885E00008D4
:10C8B00085E0000885E000080000000085E0000831
:10C8C00085E0000885E0000885E0000885E00008B4
:10C8D00085E0000885E0000885E0000885E00008A4
:10C8E00085E0000885E0000800000000000000006E
:10C8F0000000000000000000000000000000000038
:10C900000000000085E000080000000085E000084D
:10C9100085E000080000000085E00008000000003D
:10C9200085E0000885E0000885E0000885E0000853
:10C9300085E0000885E0000885E0000800000000B0
:10C9400085E0000885E0000885E0000800000000A0
:10C9500085E0000885E0000885E0000885E0000823
:10C9600085E0000885E0000885E000080000000080
:10C970000000000085E0000800000000000000004A
:10C9800085E0000885E0000885E0000885E00008F3
:04C9900085E0000836
:10C9A00010B5054C237833B9044B13B10448AFF3E9
:10C9B00000800123237010BD8C00002000000000C7
:10C9C000201D010808B5034B1BB103490348AFF311
:10C9D000008008BD0000000090000020201D01081C
:10C9E00001F0FF01102A2BDB10F0070F08D010F820
:10C9F000013B013A8B422DD010F0070F42B3F6D124
:10CA0000F0B441EA012141EA014122F007047FF03C
:10CA100000070023F0E80256083C85EA010586EA93
:10CA2000010685FA47F5A3FA87F586FA47F6A5FACF
:10CA300087F68EB9EED1F0BC01F0FF0102F00702DB
:10CA400032B110F8013B013A83EA010313B1F8D186
:10CA50000020704701387047002D06BF3546033867
:10CA6000073815F0010F07D1013015F4807F02BFA0
:10CA7000013015F4C03F0130F0BC0138704700BFF1
:10CA800053B94AB9002908BF00281CBF4FF0FF3135
:10CA90004FF0FF3000F070B9ADF1080C6DE904CE35
:10CAA00000F006F8DDF804E0DDE9022304B0704789
:10CAB0002DE9F047089E0D4604460F46002B4AD14B
:10CAC0008A42944665D9B2FA82F343B102FA03FC72
:10CAD000C3F120029F4020FA02F217439C404FEA24
:10CAE0001C4E1FFA8CF5B7FBFEF1220C0EFB1177E2
:10CAF00042EA074201FB05F090420AD91CEB020210
:10CB000001F1FF3780F01C81904240F21981023917
:10CB10006244121AA4B2B2FBFEF00EFB102244EAE9
:10CB2000024400FB05F5A5420AD91CEB040400F100
:10CB3000FF3280F00781A54240F20481644402384C
:10CB400040EA0140641B00211EB1DC400023C6E91D
:10CB50000043BDE8F0878B4208D9002E00F0ED803D
:10CB60000021C6E900050846BDE8F087B3FA83F165
:10CB7000002949D1AB4202D3824200F2F880841AE4
:10CB800065EB030201201746002EE2D0C6E90047FC
:10CB9000DFE702B9FFDEB2FA82F3002B40F09080AB
:10CBA0008A1A4FEA1C471FFA8CFE0121B2FBF7F5E7
:10CBB00007FB1520220C42EA00420EFB05F09042D2
:10CBC00008D91CEB020205F1FF3802D2904200F2B4
:10CBD000CB804546121AA4B2B2FBF7F007FB102235
:10CBE00044EA02440EFB00FEA64508D91CEB0404EF
:10CBF00000F1FF3202D2A64500F2BB801046A4EB42
:10CC00000E0440EA05409FE7C1F120078B4022FA5D
:10CC100007FC4CEA030C05FA01F420FA07F3FD4087
:10CC20004FEA1C492343B5FBF9F81FFA8CFE09FBB8
:10CC300018551C0C44EA054408FB0EF5A54202FAFF
:10CC400001F200FA01F00BD91CEB040408F1FF3AE1
:10CC500080F08880A54240F28580A8F102086444F3
:10CC6000641B9DB2B4FBF9F309FB134445EA044489
:10CC700003FB0EFEA64508D91CEB040403F1FF35A7
:10CC80006CD2A6456AD9023B644443EA0843A3FB3D
:10CC90000295A4EB0E04AC42C846AE4656D353D020
:10CCA00056B1B0EB080264EB0E0404FA07F7CA4071
:10CCB000CC401743C6E9007418460021BDE8F08750
:10CCC000C3F1200102FA03FC20FA01F225FA01F176
:10CCD0009D402A434FEA1C471FFA8CFEB1FBF7F038
:10CCE00007FB1015110C41EA054100FB0EF58D42C2
:10CCF00004FA03F408D91CEB010100F1FF382FD22C
:10CD00008D422DD902386144491B92B2B1FBF7F52F
:10CD100007FB151142EA014205FB0EF1914208D9C9
:10CD20001CEB020205F1FF3816D2914214D9023DE4
:10CD30006244521A45EA004138E73146304608E776
:10CD40003946E6E61046FBE64845A9D2B9EB0208AB
:10CD500065EB0C0E013BA3E74546EAE72B4694E75B
:10CD60004046D1E7D0467BE7023D624432E70846C1
:10CD70000AE76444023842E7704700BF80B487B0D6
:10CD800000AF786039604FF6FF73FB820023FB73BE
:10CD900000233B611BE0FB8A1B021AB2FB8A1B0AC1
:10CDA0009BB2184679683B690B441B784340DBB261
:10CDB0000C4931F813301BB253401BB2FB827A6826
:10CDC0003B6913441B78FB733B6901333B613A6950
:10CDD0003B689A42DFD3FB8A18461C37BD465DF894
:10CDE000047B70471020010880B582B000AF00239B
:10CDF000FB712B4804F02CF92A4B00221A602A4BB5
:10CE000000221A60294B00221A60294B01221A7055
:10CE1000284BFF221A70284B00221A70274B002241
:10CE20001A8089220021264804F0F2F98921244839
:10CE300000F02EFA0346BB80214B5B78FB70BB8869
:10CE4000002B0DD0BB8819461D4800F03FF8034663
:10CE5000FB714FF400414FF0904001F0C1FF01E041
:10CE60000123FB71FB79002B08D0164804F0F0F881
:10CE7000FB780121184600F0EBFA0BE0124804F0B1
:10CE8000E7F8FB780021184600F0E2FA084B1B781F
:10CE9000002BC6D1FB7918460837BD4680BD00BFC0
:10CEA000381D010838010020400100203C0100200D
:10CEB0003101002044010020320100203401002013
:10CEC000A8000020581D0108681D0108B0B59AB0DF
:10CED00000AF78600B467B80012387F867307B6862
:10CEE000002B00F0C8817B88002B00F0C481B14B7F
:10CEF0001B78042B00F2B28101A252F823F000BF8C
:10CF000015CF000823CF000845CF0008ADCF00089B
:10CF100087D00008A84804F09BF8002387F8673002
:10CF2000A9E17B687B647B6C5B78012B40F09A8184
:10CF3000A24804F08DF89F4B02221A70002387F854
:10CF400067308FE17B68BB64BB6C5B78022B40F081
:10CF50008B81BB6C5B689A4A1360BB6C1A7A994BE5
:10CF60001A70BB6CB3F809309BB21A46964B1A6024
:10CF7000BB6CB3F80B309AB2944B1A80904B1B6881
:10CF80001946934803F0FEFF00F08EFB03461A4655
:10CF9000904B1A708F4B1B78FF2B00F06581854BEF
:10CFA00003221A70002387F867305DE17B683B65D8
:10CFB0003B6D9A78DB781B021343A7F84E303B6D2C
:10CFC0005B78032B40F05281002387F86630824B58
:10CFD0001B68002B2ED1012387F866307F4B1B681E
:10CFE00007F128041D4628686968AA68EB680FC421
:10CFF0002869696903C42B8BAA7E23801346A3701A
:10D00000744B1B781A4613465B001344DB009B1AD3
:10D0100068333B443C3B01221A7007F12803184651
:10D0200000F08AFB034687F8673097F86730002BDB
:10D0300040F01E81674B18787B68191D97F86630A1
:10D04000B7F84E2000F034FA034687F84D3097F8D1
:10D050004D30002B40F00A815F4B1B68D909584BBB
:10D060001B68DB091A465E4803F08CFF5A4B1A68AE
:10D07000534B1B689A4202D34E4B04221A70002372
:10D0800087F86730F2E07B68BB65BB6D5B78042B8B
:10D0900040F0F080534803F0DBFF534803F0D8FF23
:10D0A000484B1B78012B02D1504B3B6601E0504BA3
:10D0B0003B663B6E424A126811461846FFF75EFE19
:10D0C0000346A7F85630B7F856203F4B1B689A42E4
:10D0D00002D0484803F0BCFF474803F0B9FF3F4B7C
:10D0E0001B6807F10C041D4628686968AA68EB688C
:10D0F0000FC42869696903C42B8BAA7E2380134659
:10D10000A370344B1B781A46B7F8561013465B00D1
:10D110001344DB009B1A68333B445C3BC3F80B10A1
:10D120002C4B1B781A46264B196813465B00134498
:10D13000DB009B1A68333B445C3BC3F80710254B6C
:10D140001B781A4613465B001344DB009B1A6833B6
:10D150003B44583B00221A701E4B1B781A4613465C
:10D160005B001344DB009B1A68333B44563B0122AF
:10D170001A70184B1B781A46144B198813465B001B
:10D180001344DB009B1A68333B44543B0A46A3F824
:10D190000720104B1B781A4613465B001344DB0034
:10D1A0009B1A68333B444B3B01221A70002387F8DB
:10D1B0005F303AE031010020781D01088C1D010824
:10D1C00038010020320100203C0100203401002001
:10D1D000A81D01084401002040010020000000209B
:10D1E000D01D0108DC1D0108F81D010800F003082E
:10D1F000001007081C1E0108341E0108214B1B7873
:10D2000097F85F209A420BD097F85F2013465B0097
:10D210001344DB009B1A68333B44563B00221A70D0
:10D2200097F85F30013387F85F3097F85F30002B55
:10D23000E4D0154BFB6007F10C03184600F07CFAB4
:10D24000034687F8673097F86730002B12D10F4BF1
:10D2500000221A70002387F867300BE0012387F85B
:10D26000673008E000BF06E000BF04E000BF02E056
:10D2700000BF00E000BF97F8673018466837BD462A
:10D28000B0BD00BF44010020EDFEEFBE3101002023
:10D2900080B586B000AF78600B467B800023BB82F0
:10D2A00000233B820023FB81BB8A7A68D1184FF0B0
:10D2B000FF330122634803F04FF80346FB82B7F9BE
:10D2C0001630002B40F09B80BB8A5A1CBA821A464B
:10D2D0007B6813441B782A2B02D00123FB8299E040
:10D2E000BB8A5A1CBA821A467B689918FA23012213
:10D2F000544803F031F80346FB82B7F91630002B8F
:10D300007FD1BB8A7A68D118FA2302224D4803F0F4
:10D3100023F80346FB82B7F91630002B73D1BB8A82
:10D320007A6813441B88BB81BB8A0233BB8200230B
:10D330007B8213E0BB8A5A1CBA821A467B68991812
:10D34000FA2301223F4803F007F80346FB82B7F9AE
:10D350001630002B07D17B8A01337B827A8ABB8906
:10D360009A42E7D300E000BFB7F91630002B4CD14A
:10D37000BB8A7A68D118FA230222324802F0ECFF05
:10D380000346FB82B7F91630002B40D1BB8A7A687E
:10D3900013441B88FB81BB8A0233BB82BB8A7A6839
:10D3A000D118FA230122274802F0D6FF0346FB8258
:10D3B000B7F91630002B2CD1BB8A5A1CBA821A46F8
:10D3C0007B6813441B78232B02D00123FB8221E0CE
:10D3D0007B685A1CBB89033319461046FFF7CEFC05
:10D3E00003463B823A8AFB899A4213D03B8AFA89E8
:10D3F0001946154803F0C6FD0123FB820AE000BF71
:10D4000008E000BF06E000BF04E000BF02E000BF8C
:10D4100000E000BFB7F91630002B01D00023BB821B
:10D420007A88BB8A9A4207D27B88BA8A194607480B
:10D4300003F0A8FD0023BB82BB8A18461837BD46FF
:10D4400080BD00BF04020020401E0108801E0108AC
:10D4500080B584B000AF03460A46FB711346BB712A
:10D4600007F1080300221A605A602A233B72FB79F5
:10D470007B7201237B81BB793B732323FB7307F111
:10D480000803043301211846FFF778FC0346A7F888
:10D490000D3007F108014FF0FF330822034802F076
:10D4A000D1FE00BF1037BD4680BD00BF0402002082
:10D4B0002DE9B04F96B000AF396011461A460346C9
:10D4C000FB710B46BB801346BB710023BB6300237B
:10D4D0007B6300233B630023FB6200237B6200230A
:10D4E0003B620023FB61FB79002B03D0012387F80B
:10D4F0005730BCE001F0BEF8034687F8573097F884
:10D500005730002B40F0B080BB79002B3FD0FB7927
:10D5100019465B4803F036FD01F0ACF8594B1B7817
:10D52000012B04D1584B3B65584BFB6403E0584B2F
:10D530003B65584BFB64386D00F0C2F9B863F86C7A
:10D5400000F0BEF90246BB6BD31A7B63524800F071
:10D55000F7F938630023FB603B6B3B61BB6B7B617E
:10D560007B6BBB6107F1240207F10C0311461846DF
:10D5700001F066F9034687F8573001F09DF897F8F7
:10D580005730002B03D0454803F062FD6FE03D4B60
:10D590001B78012B01D13C4B00E03D4BBB6201F0FD
:10D5A00069F80023BB644EE04FF000024FF0000327
:10D5B000C7E910230023FB6325E0BA6CFB6B13441F
:10D5C0001A463B6813441B78DBB20022984691460A
:10D5D000FB6BDB00A3F12001C3F1200209FA03F584
:10D5E00008FA01F10D4328FA02F2154308FA03F490
:10D5F000D7E9102342EA040A43EA050BC7E910AB56
:10D60000FB6B0133FB63FB6B072BD6DD244B1A68E6
:10D61000BB6AD118D7E91023002000F0BFFF0346F2
:10D6200087F8573097F85730002B05D11C4B1B68F3
:10D6300008331B4A136003E01A4803F009FD06E0B3
:10D64000BB6C0833BB64BB88BA6C9A42ACDB97F8FE
:10D650005730002B0AD101F02FF8034687F85730D6
:10D6600097F85730002B02E000BF00E000BF01F048
:10D6700023F897F8573018465837BD46BDE8B08FA5
:10D68000C41E01083201002000F00308000807084A
:10D690000010070800D8070800000408EC1E010865
:10D6A00040010020001F0108B0B588B000AFFF2383
:10D6B000BB771F4B1B683C461D4628686968AA68F3
:10D6C000EB680FC42869696903C42B8BAA7E238089
:10D6D0001346A3700023FB7722E0FA7F13465B001A
:10D6E0001344DB009B1A20333B441C3B1B78002B6C
:10D6F0000BD1FA7F13465B001344DB009B1A2033E7
:10D700003B441B3B1B78002B07D1FB7FBB77BB7FC8
:10D710001946084803F036FC05E0FB7F0133FB7730
:10D72000FB7F002BD9D0002318462037BD46B0BD63
:10D7300000000020141F01082DE9B04F8CB000AF8D
:10D7400078600023BB6100237B6100233B610023E1
:10D75000BB607B68002B03D1012387F82F309EE04C
:10D7600000F088FF034687F82F3097F82F30002B02
:10D7700040F090804FF0FF3000F0AEFF00F07AFFF5
:10D780004A4800F09DF8B861494800F099F802460F
:10D79000BB69D31A7B61474800F0D2F83861464B29
:10D7A00000221A60444A3B695360434ABB69936054
:10D7B000414A7B69D36007F1080319463E4801F0EE
:10D7C0003FF8034687F82F3097F82F30002B63D1AE
:10D7D0007B68FB600023BB6248E04FF000024FF023
:10D7E0000003C7E908230023FB6124E0FA69BB6A50
:10D7F0001344FA6813441B78DBB200229846914622
:10D80000FB69DB00A3F12001C3F1200209FA03F553
:10D8100008FA01F10D4328FA02F2154308FA03F45D
:10D82000D7E9082342EA040A43EA050BC7E908AB33
:10D83000FB690133FB61FB69072BD7DDBB6A03F191
:10D84000006101F5FC21D7E90823002000F0A6FEC5
:10D85000034687F82F3097F82F30002B03D0174856
:10D8600003F0F6FB05E0BB6A0833BB62BB6A1A2B08
:10D87000B3D94FF0FF3000F02FFF97F82F30002B77
:10D880000CD100F019FF034687F82F3097F82F309E
:10D89000002B04E000BF02E000BF00E000BF97F8EB
:10D8A0002F3018463037BD46BDE8B08F00E007087E
:10D8B00000F8070800000408480100203C1F010888
:10D8C00080B485B000AF78600023FB60194B1B6803
:10D8D0009BB24FF6FF72934207D0164B1B689A0219
:10D8E000154B134003F1006300E0144B7A68934238
:10D8F00005D97B6803F17843DB0AFB6013E00D4B2D
:10D900001B689BB24FF6FF72934207D0094B1B680E
:10D910009A02094B134003F1006300E0074B7A6859
:10D92000D31ADB0AFB60FB6818461437BD465DF866
:10D93000047B7047E075FF1F00FCFF030000080830
:10D9400080B483B000AF7860012318460C37BD4621
:10D950005DF8047B7047000080B582B000AF78604E
:10D96000391D4FF0FF330122034802F06BFC7B6846
:10D9700018460837BD4680BD7C01002080B584B0C4
:10D9800000AF00F080FB00F069F800F037F900F01C
:10D99000D9F800F003F900F0B3F80023FB7300F0AE
:10D9A000DBFB034603F5DA531833BB60274803F06B
:10D9B0004FFB20214FF0904001F0E2F90346FB714C
:10D9C00000F0CAFB3860FB79012B09D13A68BB68CB
:10D9D0009A4205D8FB7B83F00103DBB2002BE8D130
:10D9E000FB79002B02D0FB7B002B1ED0184803F0E4
:10D9F0002FFB01224FF400414FF0904001F0D8F985
:10DA0000FFF7F2F90346002B03D0124803F020FB86
:10DA1000FEE700224FF400414FF0904001F0C8F9BA
:10DA20000D4803F015FB00F0B6FC00224FF4004156
:10DA30004FF0904001F0BCF94FF400414FF090409E
:10DA400001F0CEF9642000F093FBF5E7781F0108A0
:10DA5000A41F0108C41F0108E41F010880B596B087
:10DA600000AF07F1140344220021184603F0D0FB55
:10DA70003B4600221A605A609A60DA601A614FF4DD
:10DA8000007001F0D5F90346002B01D000F004F935
:10DA900002237B614FF480733B6240237B6202234D
:10DAA000FB6302233B6401237B640823BB640723DD
:10DAB000FB6402233B6502237B6507F114031846D0
:10DAC00001F00CFA0346002B01D000F0E5F80F231B
:10DAD0003B6003237B600023BB600023FB600023CB
:10DAE0003B613B460321184601F00CFE0346002B28
:10DAF00001D000F0D1F800BF5837BD4680BD00000E
:10DB000080B500AF0D4B0E4A1A600C4B00221A7103
:10DB10000A4B00225A71094B00225A61074B00221E
:10DB20009A61064B01221A62044800F045FC034644
:10DB3000002B01D000F0B0F800BF80BD58010020DC
:10DB40000030024080B500AF124B134A1A60114BEF
:10DB50004FF4E1325A600F4B00229A600D4B0022C5
:10DB6000DA600C4B00221A610A4B0C225A61094BF5
:10DB700000229A61074B00221A62064B00225A6269
:10DB8000044802F011FB0346002B01D000F084F89A
:10DB900000BF80BD7C0100200080004080B500AF48
:10DBA000144B154A1A60134B4FF4E1325A60114B73
:10DBB00000229A600F4B0022DA600E4B00221A619D
:10DBC0000C4B0C225A610B4B00229A61094B00222C
:10DBD000DA61084B00221A62064B00225A6205489D
:10DBE00002F0E2FA0346002B01D000F055F800BF26
:10DBF00080BD00BF040200200048004080B588B00E
:10DC000000AF07F10C0300221A605A609A60DA60D4
:10DC10001A61204BDB6C1F4A43F00103D3641D4B98
:10DC2000DB6C03F00103BB60BB681A4BDB6C194A69
:10DC300043F00203D364174BDB6C03F002037B60F9
:10DC40007B6800224FF400414FF0904001F0B0F8A3
:10DC50002023FB6000233B6101237B6107F10C0360
:10DC600019464FF0904000F011FF4FF40043FB6065
:10DC700001233B6100237B610023BB6107F10C039F
:10DC800019464FF0904000F001FF00BF2037BD461D
:10DC900080BD00BF0010024080B400AF72B600BF6C
:10DCA000FEE7000080B483B000AF0F4B1B6E0E4A3E
:10DCB00043F0010313660C4B1B6E03F001037B6002
:10DCC0007B68094B9B6D084A43F080539365064B74
:10DCD0009B6D03F080533B603B6800BF0C37BD4633
:10DCE0005DF8047B704700BF0010024080B485B02F
:10DCF00000AF78607B681B680A4A93420BD10A4BDD
:10DD00009B6C094A43F480539364074B9B6C03F468
:10DD10008053FB60FB6800BF1437BD465DF8047B91
:10DD2000704700BF003002400010024080B5A4B030
:10DD300000AF786007F17C0300221A605A609A6095
:10DD4000DA601A6107F1180364220021184603F013
:10DD50005FFA7B681B68414A93423BD12023BB6139
:10DD60000023BB6407F11803184601F0EFFE0346D9
:10DD7000002B01D0FFF790FF394BDB6D384A43F0A1
:10DD80000103D365364BDB6D03F001037B617B69D7
:10DD9000334BDB6C324A43F00103D364304BDB6C12
:10DDA00003F001033B613B690C23FB670223C7F8C7
:10DDB00080300023C7F884300323C7F88830082355
:10DDC000C7F88C3007F17C0319464FF0904000F003
:10DDD0005DFE3FE07B681B68224A93423AD10423F0
:10DDE000BB6100233B6407F11803184601F0AEFE47
:10DDF0000346002B01D0FFF74FFF194B9B6D184ACC
:10DE000043F480239365164B9B6D03F48023FB60E2
:10DE1000FB68134BDB6C124A43F00203D364104BD4
:10DE2000DB6C03F00203BB60BB684FF44063FB672D
:10DE30000223C7F880300023C7F884300323C7F8D3
:10DE400088300723C7F88C3007F17C031946064851
:10DE500000F01CFE00BF9037BD4680BD0080004032
:10DE600000100240004800400004004880B400AFA9
:10DE7000FEE780B400AFFEE780B400AFFEE780B4F9
:10DE800000AFFEE780B400AFFEE780B400AF00BF94
:10DE9000BD465DF8047B704780B400AF00BFBD464F
:10DEA0005DF8047B704780B400AF00BFBD465DF8ED
:10DEB000047B704780B500AF00F03AF900BF80BD29
:10DEC00080B586B000AFF860B9607A6000237B61EE
:10DED0000AE0AFF300800146BB685A1CBA60CAB2C0
:10DEE0001A707B6901337B617A697B689A42F0DB47
:10DEF0007B6818461837BD4680BD80B586B000AF38
:10DF0000F860B9607A6000237B6109E0BB685A1C45
:10DF1000BA601B781846FFF71FFD7B6901337B61F0
:10DF20007A697B689A42F1DB7B6818461837BD46F0
:10DF300080BD80B483B000AF78604FF0FF331846E7
:10DF40000C37BD465DF8047B704780B483B000AFEA
:10DF5000786039603B684FF400525A6000231846DD
:10DF60000C37BD465DF8047B704780B483B000AFCA
:10DF70007860012318460C37BD465DF8047B704776
:10DF800080B485B000AFF860B9607A6000231846AD
:10DF90001437BD465DF8047B7047000080B586B03D
:10DFA00000AF7860144A154BD31A7B617B693B61E3
:10DFB000134B1B68002B02D1114B124A1A60104BF5
:10DFC0001A687B6813443A699A4207D203F06EF9E3
:10DFD00003460C221A604FF0FF3309E0084B1B6820
:10DFE000FB60074B1A687B681344054A1360FB68A3
:10DFF00018461837BD4680BD00800220000400008E
:10E000008C020020E003002080B400AF074B084AD8
:10E010009A60064BD3F88830044A43F47003C2F880
:10E02000883000BFBD465DF8047B704700ED00E01E
:10E0300000C80008DFF834D0FFF7E6FF0C480D49B0
:10E040000D4A002302E0D458C4500433C4188C4253
:10E05000F9D30A4A0A4C002301E013600432A242B9
:10E06000FBD303F029F9FFF789FCFEE700800220CB
:10E07000000000208C0000209C2201088C00002061
:10E08000E0030020FEE780B582B000AF0023FB7103
:10E09000032000F059F90F2000F00EF80346002B82
:10E0A00002D00123FB7101E0FFF7FCFDFB7918466C
:10E0B0000837BD4680BD000080B584B000AF7860F1
:10E0C0000023FB73174B1B78002B23D0164B1A68C9
:10E0D000144B1B7819464FF47A73B3FBF1F3B2FB80
:10E0E000F3F3184600F05BF90346002B0FD17B6871
:10E0F0000F2B09D8002279684FF0FF3000F02FF97C
:10E100000A4A7B68136007E00123FB7304E00123E4
:10E11000FB7301E00123FB73FB7B18461037BD4600
:10E1200080BD00BF0C00002004000020080000207B
:10E1300080B400AF064B1B781A46064B1B6813448D
:10E14000044A136000BFBD465DF8047B704700BF02
:10E150000C0000209002002080B400AF034B1B682D
:10E160001846BD465DF8047B704700BF9002002052
:10E1700080B584B000AF7860FFF7EEFFB8607B68D1
:10E18000FB60FB68B3F1FF3F05D00A4B1B781A46D2
:10E19000FB681344FB6000BFFFF7DEFF0246BB686D
:10E1A000D31AFA689A42F7D800BF00BF1037BD46AD
:10E1B00080BD00BF0C00002080B485B000AF786047
:10E1C0007B6803F00703FB600C4BDB68BB60BA683D
:10E1D0004FF6FF031340BB60FB681A02BB68134392
:10E1E00043F0BF6343F40033BB60044ABB68D360B1
:10E1F00000BF1437BD465DF8047B704700ED00E0BA
:10E2000080B400AF044BDB681B0A03F00703184619
:10E21000BD465DF8047B704700ED00E080B483B03C
:10E2200000AF03463960FB7197F90730002B0ADB1A
:10E230003B68DAB20C4997F907301201D2B20B44AD
:10E2400083F800230AE03B68DAB20849FB7903F05F
:10E250000F03043B1201D2B20B441A7600BF0C37F5
:10E26000BD465DF8047B704700E100E000ED00E092
:10E2700080B489B000AFF860B9607A60FB6803F0E1
:10E280000703FB61FB69C3F10703042B28BF0423C9
:10E29000BB61FB690433062B02D9FB69033B00E039
:10E2A00000237B614FF0FF32BB6902FA03F3DA43CC
:10E2B000BB681A407B699A404FF0FF317B6901FAD5
:10E2C00003F3D9437B680B40134318462437BD46FC
:10E2D0005DF8047B7047000080B400AFBFF34F8F40
:10E2E00000BF064BDB6803F4E0620449044B1343B0
:10E2F000CB60BFF34F8F00BF00BFFDE700ED00E034
:10E300000400FA0580B582B000AF78607B68013BFD
:10E31000B3F1807F01D301230FE00A4A7B68013B00
:10E3200053600F214FF0FF30FFF778FF054B0022BD
:10E330009A60044B07221A60002318460837BD462E
:10E3400080BD00BF10E000E080B582B000AF786013
:10E350007868FFF731FF00BF0837BD4680BD80B544
:10E3600086B000AF0346B9607A60FB7300237B611F
:10E37000FFF746FF78617A68B9687869FFF778FF38
:10E38000024697F90F3011461846FFF747FF00BFC6
:10E390001837BD4680BD80B500AFFFF79DFF80B543
:10E3A00082B000AF78607868FFF7ACFF034618468C
:10E3B0000837BD4680BD000080B582B000AF7860F0
:10E3C0007B68002B01D1012354E07B685B7FDBB2CB
:10E3D000002B05D17B6800221A777868FFF786FC4E
:10E3E0007B6802225A777B681B79002B0CD17B68F3
:10E3F0001B68224A5A617B681B689A687B681B68A5
:10E4000022F018029A600CE07B6899687B68DB68F0
:10E410001A46786800F034F80346002B01D0012337
:10E4200028E07B685B79002B05D17B681B684FF087
:10E43000FF321A6104E07B681B687A6812691A610E
:10E440007B681B689B6823F060017B685A697B6866
:10E450001B680A439A607B681B689B6823F08001F5
:10E460007B689A697B681B680A439A607B68012213
:10E470005A77002318460837BD4680BDB71DC10432
:10E4800080B487B000AFF860B9607A600023FB7594
:10E490001F233B61BB6803F00103002B02D1012362
:10E4A000FB7563E000BF3B695A1E3A61002B09D03F
:10E4B0003B6903F01F03BA6822FA03F303F0010378
:10E4C000002BF0D07B68182B46D801A252F823F01D
:10E4D0005FE5000859E5000859E5000859E500081E
:10E4E00059E5000859E5000859E5000859E5000814
:10E4F0004DE5000859E5000859E5000859E5000810
:10E5000059E5000859E5000859E5000859E50008F3
:10E5100041E5000859E5000859E5000859E50008FB
:10E5200059E5000859E5000859E5000859E50008D3
:10E5300035E500083B69062B13D90123FB7510E074
:10E540003B69072B0FD90123FB750CE03B690F2BAF
:10E550000BD90123FB7508E00123FB7506E000BF22
:10E5600004E000BF02E000BF00E000BFFB7D002B25
:10E570000DD1FB681B68BA685A61FB681B689B6811
:10E5800023F01801FB681B687A680A439A60FB7DD8
:10E5900018461C37BD465DF8047B704780B586B0D1
:10E5A00000AFF860B960C7E9002300233B612F4B3F
:10E5B0001B78012B01D1022353E02C4B01221A704E
:10E5C0004CF2503000F088F80346FB75FB7D002BC1
:10E5D00043D1264B00225A60254B1B6803F480630D
:10E5E000002B09D0224B1B68214A23F4806313605F
:10E5F0001E4B02221A7702E01C4B00221A77FB689E
:10E60000002B07D1D7E90023B86800F0BDF801233B
:10E610003B6110E0FB68012B02D0FB68022B0AD1A2
:10E620003B681946B86800F0D5F8FB68022B02D1A8
:10E630004FF480233B614CF2503000F04DF803461C
:10E64000FB753B69002B06D0094B5A693B69DB43DC
:10E65000074913404B6100F0CFF9044B00221A70B8
:10E66000FB7D18461837BD4680BD00BF1000002056
:10E670000020024080B483B000AF0023FB710B4B3D
:10E680005B69002B0BDA094B094A9A60074B094A70
:10E690009A60064B5B69002B01DA0123FB71FB7961
:10E6A00018460C37BD465DF8047B704700200240D9
:10E6B00023016745AB89EFCD80B400AF054B5B69A3
:10E6C000044A43F00043536100231846BD465DF8F9
:10E6D000047B70470020024080B584B000AF7860B2
:10E6E000FFF73AFDF8600DE07B68B3F1FF3F09D01A
:10E6F000FFF732FD0246FB68D31A7A689A4201D8C6
:10E70000032336E01D4B1B6903F48033002BEBD150
:10E710001A4B1A691A4B1340BB60BB68002B1ED002
:10E72000184B5A68BB681343164A5360BB6803F022
:10E730004043002B07D0114B9A69BB6803F040435C
:10E740000E4913438B61BB6823F04043002B04D078
:10E750000A4ABB6823F040431361012309E0074BD9
:10E760001B6903F00103002B02D0044B01221A6144
:10E77000002318461037BD4680BD00BF0020024070
:10E78000FAC302001000002080B485B000AFF8602A
:10E79000C7E900230E4B5B690D4A43F00103536147
:10E7A000FB683A681A60BFF36F8F00BFD7E90001BA
:10E7B0004FF000024FF000030A000023F968043113
:10E7C00013460B6000BF1437BD465DF8047B7047ED
:10E7D0000020024080B489B000AF786039604023E7
:10E7E000FB777B68BB613B687B61144B5B69134AB9
:10E7F00043F480235361EFF31083FB60FB683B61BC
:10E8000072B600BF7B691A68BB691A60BB690433C2
:10E81000BB617B6904337B61FB7F013BFB77FB7F43
:10E82000002BEFD13B69BB60BB6883F3108800BF4E
:10E8300000BF2437BD465DF8047B704700200240CE
:10E8400080B584B000AF78603960484B1B78012BED
:10E8500001D1022385E0454B01221A704CF2503061
:10E86000FFF73AFF0346FB73FB7B002B75D13F4B51
:10E8700000225A603E4B1B6803F40073002B13D038
:10E880003B4B1B6803F48063002B09D0384B1B689B
:10E89000374A23F480631360344B03221A7716E05F
:10E8A000324B01221A7712E0314B1B6803F480636C
:10E8B000002B09D02E4B1B682D4A23F48063136074
:10E8C0002A4B02221A7702E0284B00221A777B6833
:10E8D0001B68012B11D17B685B68184600F04AF871
:10E8E0004CF25030FFF7F8FE0346FB73204B5B6998
:10E8F0001F4A23F0040353612DE03B684FF0FF32C1
:10E900001A607B689B68BB601DE07B685B6819468A
:10E91000B86800F04DF84CF25030FFF7DDFE0346CA
:10E92000FB73134B5B69124A23F4FF6323F002036A
:10E930005361FB7B002B03D03B68BA681A600AE086
:10E94000BB680133BB607B689A687B68DB681344F3
:10E95000BA689A42D9D300F04FF8044B00221A70DB
:10E96000FB7B18461037BD4680BD00BF100000205D
:10E970000020024080B483B000AF78607B6803F071
:10E980000103002B05D0094B5B69084A43F00403DF
:10E990005361064B5B69054A43F48033536100BF02
:10E9A0000C37BD465DF8047B704700BF0020024075
:10E9B00080B483B000AF786039600E4B5B6923F49C
:10E9C000FF627B68DB0003F4FF630A4913434B617A
:10E9D000084B5B69074A43F002035361054B5B69CF
:10E9E000044A43F48033536100BF0C37BD465DF8E1
:10E9F000047B70470020024080B483B000AF214BFD
:10EA00001B7FFB71FB79012B02D0FB79032B17D104
:10EA10001D4B1B681C4A23F4007313601A4B1B68C0
:10EA2000194A43F400631360174B1B68164A23F41A
:10EA300000631360144B1B68134A43F400731360A4
:10EA4000FB79022B02D0FB79032B11D10E4B1B68F3
:10EA50000D4A43F4805313600B4B1B680A4A23F49E
:10EA600080531360084B1B68074A43F480631360AC
:10EA7000044B00221A7700BF0C37BD465DF8047BBB
:10EA8000704700BF100000200020024080B487B013
:10EA900000AF7860396000237B6154E13B681A68FD
:10EAA00001217B6901FA03F31340FB60FB68002B33
:10EAB00000F046813B685B6803F00303012B05D03F
:10EAC0003B685B6803F00303022B30D17B689B68D3
:10EAD0003B617B695B00032202FA03F3DB433A6983
:10EAE00013403B613B68DA687B695B0002FA03F321
:10EAF0003A6913433B617B683A699A607B685B685B
:10EB00003B6101227B6902FA03F3DB433A6913405C
:10EB10003B613B685B681B0903F001027B6902FAF9
:10EB200003F33A6913433B617B683A695A603B6877
:10EB30005B6803F00303032B17D07B68DB683B6142
:10EB40007B695B00032202FA03F3DB433A6913405B
:10EB50003B613B689A687B695B0002FA03F33A69A0
:10EB600013433B617B683A69DA603B685B6803F09A
:10EB70000303022B23D17B69DA087B68083253F840
:10EB800022303B617B6903F007039B000F2202FAEE
:10EB900003F3DB433A6913403B613B681A697B69C5
:10EBA00003F007039B0002FA03F33A6913433B6146
:10EBB0007B69DA087B680832396943F822107B6880
:10EBC0001B683B617B695B00032202FA03F3DB43B2
:10EBD0003A6913403B613B685B6803F003027B6961
:10EBE0005B0002FA03F33A6913433B617B683A69BD
:10EBF0001A603B685B6803F44033002B00F0A08090
:10EC0000584B1B6E574A43F001031366554B1B6E5E
:10EC100003F00103BB60BB68534A7B699B08023366
:10EC200052F823303B617B6903F003039B000F2202
:10EC300002FA03F3DB433A6913403B617B68B3F1AB
:10EC4000904F19D07B68494A934213D07B68484A59
:10EC500093420DD07B68474A934207D07B68464A6F
:10EC6000934201D1042308E0072306E0032304E0D4
:10EC7000022302E0012300E000237A6902F003028C
:10EC8000920093403A6913433B6137497B699B0883
:10EC900002333A6941F82320384B9B683B61FB689B
:10ECA000DB433A6913403B613B685B6803F48013C4
:10ECB000002B03D03A69FB6813433B612F4A3B6941
:10ECC00093602E4BDB683B61FB68DB433A69134082
:10ECD0003B613B685B6803F40013002B03D03A6987
:10ECE000FB6813433B61254A3B69D360234B5B6858
:10ECF0003B61FB68DB433A6913403B613B685B68FF
:10ED000003F40033002B03D03A69FB6813433B61E3
:10ED10001A4A3B695360194B1B683B61FB68DB4334
:10ED20003A6913403B613B685B6803F48033002B16
:10ED300003D03A69FB6813433B61104A3B69136097
:10ED40007B6901337B613B681A687B6922FA03F3B4
:10ED5000002B7FF4A3AE00BF00BF1C37BD465DF89B
:10ED6000047B70470010024000000140000400488E
:10ED700000080048000C0048001000480004014052
:10ED800080B485B000AF78600B467B807B681A69E1
:10ED90007B881340002B02D00123FB7301E000238A
:10EDA000FB73FB7B18461437BD465DF8047B704748
:10EDB00080B483B000AF78600B467B8013467B70D5
:10EDC0007B78002B03D07A887B689A6102E07A888E
:10EDD0007B689A6200BF0C37BD465DF8047B7047C4
:10EDE00080B485B000AF78600B467B807B685B6940
:10EDF000FB607A88FB6813401A04FB68D9437B8860
:10EE00000B401A437B689A6100BF1437BD465DF81A
:10EE1000047B704780B400AF044B1B6803F4C063ED
:10EE20001846BD465DF8047B704700BF0070004087
:10EE300080B485B000AF78607B68B3F5007F30D1D7
:10EE4000234B1B6803F4C063B3F5007F38D0204B1D
:10EE50001B6823F4C0631E4A43F4007313601D4B08
:10EE60001B68322202FB03F31B4AA2FB03239B0C09
:10EE70000133FB6002E0FB68013BFB60144B5B6904
:10EE800003F48063B3F5806F02D1FB68002BF2D1ED
:10EE90000F4B5B6903F48063B3F5806F10D10323DC
:10EEA0000FE00B4B1B6803F4C063B3F5806F07D012
:10EEB000074B1B6823F4C063054A43F48063136067
:10EEC000002318461437BD465DF8047B704700BF29
:10EED000007000400400002083DE1B4380B588B032
:10EEE00000AF78607B68002B02D1012300F002BCE8
:10EEF000964B9B6803F00C03BB61944BDB6803F0FB
:10EF000003037B617B681B6803F01003002B00F098
:10EF1000E480BB69002B07D0BB690C2B40F08B80D1
:10EF20007B69012B40F08780884B1B6803F002034C
:10EF3000002B05D07B689B69002B01D10123D9E30D
:10EF40007B681A6A814B1B6803F00803002B04D00E
:10EF50007E4B1B6803F0F00305E07C4BD3F8943044
:10EF60001B0903F0F003934223D27B681B6A184607
:10EF700000F08CFD0346002B01D00123BAE3734B54
:10EF80001B68724A43F008031360704B1B6823F040
:10EF9000F0027B681B6A6D4913430B606B4B5B6827
:10EFA00023F47F427B68DB691B02684913434B6093
:10EFB00025E0664B1B68654A43F008031360634B0A
:10EFC0001B6823F0F0027B681B6A604913430B60E7
:10EFD0005E4B5B6823F47F427B68DB691B025B4905
:10EFE00013434B60BB69002B09D17B681B6A184631
:10EFF00000F04CFD0346002B01D001237AE300F022
:10F0000081FC0246514B9B681B0903F00F035049DA
:10F01000CB5C03F01F0322FA03F34E4A13604E4BFE
:10F020001B681846FFF748F80346FB73FB7B002B71
:10F0300052D0FB7B5EE37B689B69002B32D0434B55
:10F040001B68424A43F001031360FFF785F83861FB
:10F0500008E0FFF781F802463B69D31A022B01D979
:10F06000032347E3394B1B6803F00203002BF0D066
:10F07000364B1B68354A43F008031360334B1B685B
:10F0800023F0F0027B681B6A304913430B602F4B5F
:10F090005B6823F47F427B68DB691B022B491343C7
:10F0A0004B601AE0294B1B68284A23F001031360C8
:10F0B000FFF752F8386108E0FFF74EF802463B6967
:10F0C000D31A022B01D9032314E3204B1B6803F04E
:10F0D0000203002BF0D100E000BF7B681B6803F047
:10F0E0000103002B73D0BB69082B05D0BB690C2B27
:10F0F0000ED17B69032B0BD1144B1B6803F4003337
:10F10000002B63D07B685B68002B5FD10123F1E2A9
:10F110007B685B68B3F5803F06D10C4B1B680B4ADC
:10F1200043F48033136025E07B685B68B3F5A02F60
:10F1300014D1064B1B68054A43F480231360034B2C
:10F140001B68024A43F48033136013E0001002404E
:10F15000102201080400002008000020A04B1B68BA
:10F160009F4A23F4803313609D4B1B689C4A23F411
:10F17000802313607B685B68002B13D0FEF7ECFFE5
:10F18000386108E0FEF7E8FF02463B69D31A642BBA
:10F1900001D90323AEE2924B1B6803F40033002B2A
:10F1A000F0D014E0FEF7D8FF386108E0FEF7D4FF96
:10F1B00002463B69D31A642B01D903239AE2884B98
:10F1C0001B6803F40033002BF0D100E000BF7B6824
:10F1D0001B6803F00203002B60D0BB69042B05D031
:10F1E000BB690C2B19D17B69022B16D17C4B1B6898
:10F1F00003F48063002B05D07B68DB68002B01D112
:10F20000012377E2764B5B6823F0FE427B681B6943
:10F210001B06734913434B6040E07B68DB68002B9F
:10F2200023D06F4B1B686E4A43F480731360FEF764
:10F2300093FF386108E0FEF78FFF02463B69D31A5F
:10F24000022B01D9032355E2654B1B6803F480634D
:10F25000002BF0D0624B5B6823F0FE427B681B6999
:10F260001B065F4913434B6018E05D4B1B685C4A0B
:10F2700023F480731360FEF76FFF386108E0FEF738
:10F280006BFF02463B69D31A022B01D9032331E2FB
:10F29000534B1B6803F48063002BF0D17B681B6821
:10F2A00003F00803002B3CD07B685B69002B1CD06B
:10F2B0004B4BD3F894304A4A43F00103C2F89430E0
:10F2C000FEF74AFF386108E0FEF746FF02463B6959
:10F2D000D31A022B01D903230CE2414BD3F894300B
:10F2E00003F00203002BEFD01BE03D4BD3F894302A
:10F2F0003B4A23F00103C2F89430FEF72DFF38613A
:10F3000008E0FEF729FF02463B69D31A022B01D918
:10F310000323EFE1324BD3F8943003F00203002BC8
:10F32000EFD17B681B6803F00403002B00F0A6807C
:10F330000023FB772A4B9B6D03F08053002B0DD1EC
:10F34000274B9B6D264A43F080539365244B9B6D5E
:10F3500003F08053BB60BB680123FB77214B1B6824
:10F3600003F48073002B18D11E4B1B681D4A43F415
:10F3700080731360FEF7F0FE386108E0FEF7ECFEE4
:10F3800002463B69D31A022B01D90323B2E1154B84
:10F390001B6803F48073002BF0D07B689B68012B03
:10F3A00008D10F4BD3F890300D4A43F00103C2F857
:10F3B000903029E07B689B68052B15D1084BD3F86A
:10F3C0009030074A43F00403C2F89030044BD3F85E
:10F3D0009030034A43F00103C2F8903014E000BFBC
:10F3E00000100240007000409A4BD3F89030994AC8
:10F3F00023F00103C2F89030964BD3F89030954A31
:10F4000023F00403C2F890307B689B68002B16D071
:10F41000FEF7A2FE38610AE0FEF79EFE02463B6957
:10F42000D31A41F28832934201D9032362E1894B16
:10F43000D3F8903003F00203002BEDD015E0FEF777
:10F440008BFE38610AE0FEF787FE02463B69D31A5D
:10F4500041F28832934201D903234BE17D4BD3F82B
:10F46000903003F00203002BEDD1FB7F012B05D17F
:10F47000784B9B6D774A23F0805393657B681B68BC
:10F4800003F02003002B3CD07B685B6A002B1CD070
:10F49000704BD3F898306F4A43F00103C2F89830AC
:10F4A000FEF75AFE386108E0FEF756FE02463B6959
:10F4B000D31A022B01D903231CE1664BD3F89830F1
:10F4C00003F00203002BEFD01BE0624BD3F898301F
:10F4D000604A23F00103C2F89830FEF73DFE386120
:10F4E00008E0FEF739FE02463B69D31A022B01D928
:10F4F0000323FFE0574BD3F8983003F00203002BAF
:10F50000EFD17B689B6A002B00F0F3807B689B6ADD
:10F51000022B40F0C9804F4BDB687B617B6903F0B5
:10F5200003027B68DB6A9A422CD17B6903F070028C
:10F530007B681B6B013B1B019A4223D17B6903F45F
:10F54000FE427B685B6B1B029A421BD17B6903F016
:10F5500078427B689B6BDB069A4213D17B6903F48C
:10F56000C0027B68DB6B5B08013B5B059A4209D1FB
:10F570007B6903F0C0627B681B6C5B08013B5B0628
:10F580009A426BD0BB690C2B62D0324B1B6803F0E4
:10F590008063002B01D00123ACE02E4B1B682D4A69
:10F5A00023F080731360FEF7D7FD386108E0FEF7A3
:10F5B000D3FD02463B69D31A022B01D9032399E0FC
:10F5C000244B1B6803F00073002BF0D1214BDA6849
:10F5D000214B13407A68D16A7A68126B013A1201A2
:10F5E00011437A68526B120211437A68D26B520847
:10F5F000013A520511437A68126C5208013A5206D8
:10F6000011437A68926BD2060A4312491343CB60C6
:10F61000104B1B680F4A43F0807313600D4BDB687F
:10F620000C4A43F08073D360FEF796FD386108E022
:10F63000FEF792FD02463B69D31A022B01D9032340
:10F6400058E0044B1B6803F00073002BF0D050E02F
:10F6500001234FE0001002408C809D01274B1B6866
:10F6600003F00073002B44D1244B1B68234A43F062
:10F6700080731360214BDB68204A43F08073D360B2
:10F68000FEF76AFD386108E0FEF766FD02463B6959
:10F69000D31A022B01D903232CE0184B1B6803F06B
:10F6A0000073002BF0D024E0BB690C2B1FD0134B50
:10F6B0001B68124A23F080731360FEF74DFD38611A
:10F6C00008E0FEF749FD02463B69D31A022B01D937
:10F6D00003230FE0094B1B6803F00073002BF0D1EC
:10F6E000064BDA680549064B1340CB6001E0012365
:10F6F00000E0002318462037BD4680BD00100240C0
:10F70000FCFFEEFE80B584B000AF786039607B68A6
:10F71000002B01D10123E7E0754B1B6803F00703C1
:10F720003A689A4210D9724B1B6823F0070270495D
:10F730003B6813430B606E4B1B6803F007033A688A
:10F740009A4201D00123CFE07B681B6803F00203DB
:10F75000002B10D07B689A68664B9B6803F0F0031F
:10F760009A4208D9634B9B6823F0F0027B689B6840
:10F77000604913438B607B681B6803F00103002B17
:10F780004CD07B685B68032B07D15A4B1B6803F096
:10F790000073002B21D10123A6E07B685B68022B5C
:10F7A00007D1544B1B6803F40033002B15D1012300
:10F7B0009AE07B685B68002B07D14E4B1B6803F017
:10F7C0000203002B09D101238EE04A4B1B6803F48E
:10F7D0008063002B01D1012386E0464B9B6823F018
:10F7E00003027B685B68434913438B60FEF7B4FCFC
:10F7F000F8600AE0FEF7B0FC0246FB68D31A41F25B
:10F800008832934201D903236EE03A4B9B6803F0A0
:10F810000C027B685B689B009A42EBD17B681B689B
:10F8200003F00203002B10D07B689A68314B9B6871
:10F8300003F0F0039A4208D22E4B9B6823F0F002AB
:10F840007B689B682B4913438B60294B1B6803F033
:10F8500007033A689A4210D2254B1B6823F007022F
:10F8600023493B6813430B60214B1B6803F00703DC
:10F870003A689A4201D0012336E07B681B6803F0A6
:10F880000403002B08D01B4B9B6823F4E0627B68C9
:10F89000DB68184913438B607B681B6803F008031F
:10F8A000002B09D0134B9B6823F460527B681B69C3
:10F8B000DB00104913438B6000F024F802460D4B27
:10F8C0009B681B0903F00F030B49CB5C03F01F037C
:10F8D00022FA03F3094A1360094B1B681846FEF726
:10F8E000EBFB0346FB72FB7A18461037BD4680BD22
:10F8F00000200240001002401022010804000020F5
:10F900000800002080B489B000AF0023FB61002311
:10F91000BB613E4B9B6803F00C033B613B4BDB68D8
:10F9200003F00303FB603B69002B05D03B690C2B04
:10F9300021D1FB68012B1ED1344B1B6803F0080357
:10F94000002B07D1314BD3F894301B0A03F00F037F
:10F95000FB6105E02D4B1B681B0903F00F03FB61E6
:10F960002B4AFB6952F82330FB613B69002B0DD118
:10F97000FB69BB610AE03B69042B02D1254BBB61EB
:10F9800004E03B69082B01D1234BBB613B690C2B85
:10F9900034D11E4BDB6803F00303BB60BB68022B52
:10F9A00003D0BB68032B03D005E01A4B7B6105E055
:10F9B000194B7B6102E0FB697B6100BF134BDB6885
:10F9C0001B0903F0070301337B60104BDB681B0A44
:10F9D00003F07F037A6903FB02F27B68B2FBF3F367
:10F9E0007B610A4BDB685B0E03F0030301335B00B2
:10F9F0003B607A693B68B2FBF3F3BB61BB691846B5
:10FA00002437BD465DF8047B704700BF00100240FC
:10FA1000282201080024F40000127A0080B400AF0C
:10FA2000034B1B681846BD465DF8047B704700BF5A
:10FA30000400002080B500AFFFF7F0FF0246064B40
:10FA40009B681B0A03F007030449CB5C03F01F0308
:10FA500022FA03F3184680BD00100240202201085C
:10FA600080B500AFFFF7DAFF0246064B9B68DB0A62
:10FA700003F007030449CB5C03F01F0322FA03F3EE
:10FA8000184680BD001002402022010880B586B0D3
:10FA900000AF786000233B612A4B9B6D03F08053DD
:10FAA000002B03D0FFF7B6F9786114E0254B9B6D6E
:10FAB000244A43F080539365224B9B6D03F080539F
:10FAC000FB60FB68FFF7A6F978611E4B9B6D1D4A32
:10FAD00023F0805393657B69B3F5007F0BD17B687E
:10FAE000802B19D97B68A02B02D902233B6113E03C
:10FAF00001233B6110E07B68802B02D903233B612B
:10FB00000AE07B68802B02D102233B6104E07B6822
:10FB1000702B01D101233B610B4B1B6823F00702C3
:10FB200009493B6913430B60074B1B6803F007034C
:10FB30003A699A4201D0012300E0002318461837A1
:10FB4000BD4680BD001002400020024080B586B056
:10FB500000AF78600023FB740023BB747B681B68D4
:10FB600003F40063002B31D07B68DB6CB3F5400FEE
:10FB70001AD0B3F5400F14D8002B09D0B3F5000FFD
:10FB80000FD15D4BDB685C4A43F48033D3600CE0FB
:10FB90007B6804330021184600F014FA0346FB7416
:10FBA00003E00123FB7400E000BFFB7C002B0BD1C2
:10FBB000514BD3F8883023F440027B68DB6C4E490C
:10FBC0001343C1F8883001E0FB7CBB747B681B6881
:10FBD00003F40033002B00F09E8000237B74464B1F
:10FBE0009B6D03F08053002B01D1012300E0002323
:10FBF000002B0DD0404B9B6D3F4A43F080539365E3
:10FC00003D4B9B6D03F08053BB60BB6801237B744D
:10FC10003A4B1B68394A43F480731360FEF79CFA31
:10FC2000F86009E0FEF798FA0246FB68D31A022B47
:10FC300002D90323FB7405E0304B1B6803F4807387
:10FC4000002BEFD0FB7C002B5AD12B4BD3F89030FC
:10FC500003F440737B617B69002B1ED07B681B6EB5
:10FC60007A699A4219D0244BD3F8903023F4407328
:10FC70007B61214BD3F890301F4A43F48033C2F8A4
:10FC800090301D4BD3F890301B4A23F48033C2F8D8
:10FC90009030194A7B69C2F890307B6903F0010308
:10FCA000002B16D0FEF758FAF8600BE0FEF754FA76
:10FCB0000246FB68D31A41F28832934202D90323E9
:10FCC000FB7406E00C4BD3F8903003F00203002BDA
:10FCD000ECD0FB7C002B0BD1074BD3F8903023F4F6
:10FCE00040727B681B6E04491343C1F8903009E0F1
:10FCF000FB7CBB7406E000BF0010024000700040B7
:10FD0000FB7CBB747B7C012B05D1864B9B6D854AAC
:10FD100023F0805393657B681B6803F00103002B7D
:10FD20000AD0804BD3F8883023F003027B681B6A2B
:10FD30007C491343C1F888307B681B6803F00203D9
:10FD4000002B0AD0774BD3F8883023F00C027B6865
:10FD50005B6A74491343C1F888307B681B6803F001
:10FD60000403002B0AD06F4BD3F8883023F0300205
:10FD70007B689B6A6B491343C1F888307B681B68BA
:10FD800003F00803002B0AD0664BD3F8883023F029
:10FD9000C0027B68DB6A63491343C1F888307B6823
:10FDA0001B6803F02003002B0AD05E4BD3F8883089
:10FDB00023F440627B681B6B5A491343C1F88830B7
:10FDC0007B681B6803F40073002B0AD0554BD3F8F3
:10FDD000883023F440227B685B6C52491343C1F89E
:10FDE00088307B681B6803F48063002B0AD04D4B7E
:10FDF000D3F8883023F440127B689B6C4949134345
:10FE0000C1F888307B681B6803F04003002B0AD0E0
:10FE1000444BD3F8883023F440527B685B6B4149F4
:10FE20001343C1F888307B681B6803F08003002B04
:10FE30000AD03C4BD3F8883023F440427B689B6B5C
:10FE400038491343C1F888307B681B6803F480731A
:10FE5000002B0AD0334BD3F8883023F440327B6830
:10FE6000DB6B30491343C1F888307B681B6803F4AF
:10FE70008013002B0AD02B4BD3F89C3023F00302C5
:10FE80007B681B6C27491343C1F89C307B681B6857
:10FE900003F40023002B28D0224BD3F8883023F022
:10FEA00040627B681B6D1F491343C1F888307B6833
:10FEB0001B6DB3F1006F06D11A4BDB68194A43F48E
:10FEC0008013D36011E07B681B6DB3F1806F0CD1A0
:10FED0007B6804330121184600F074F80346FB7474
:10FEE000FB7C002B01D0FB7CBB747B681B6803F49C
:10FEF0008023002B2AD00B4BD3F8883023F04062AC
:10FF00007B685B6D07491343C1F888307B685B6D84
:10FF1000B3F1006F08D1034BDB68024A43F480134E
:10FF2000D36013E0001002407B685B6DB3F1806F1B
:10FF30000CD17B6804330121184600F043F80346D6
:10FF4000FB74FB7C002B01D0FB7CBB747B681B68C3
:10FF500003F48043002B1CD0194BD3F8883023F0D6
:10FF600040527B689B6D16491343C1F888307B680B
:10FF70009B6DB3F1805F0CD17B680433022118467E
:10FF800000F020F80346FB74FB7C002B01D0FB7CC7
:10FF9000BB747B681B6803F48033002B0AD0084BCA
:10FFA000D3F8883023F000427B68DB6D04491343AB
:10FFB000C1F88830BB7C18461837BD4680BD00BFED
:10FFC0000010024080B584B000AF78603960002333
:10FFD000FB73744BDB6803F00303002B18D0714BE9
:10FFE000DB6803F003027B681B689A420DD17B68D3
:10FFF0001B68002B09D06B4BDB681B0903F0070360
:020000040801F1
:100000005A1C7B685B689A4247D00123FB7344E02B
:100010007B681B68032B18D0032B25D8012B02D03B
:10002000022B09D020E05F4B1B6803F00203002B7A
:100030001DD10123FB731AE05A4B1B6803F4806344
:10004000002B16D10123FB7313E0564B1B6803F4FE
:100050000033002B0FD1534B1B6803F48023002B7C
:1000600009D10123FB7306E00123FB7304E000BF09
:1000700002E000BF00E000BFFB7B002B0DD1494B2D
:10008000DB6823F073027B6819687B685B68013B5F
:100090001B010B4343491343CB60FB7B002B7CD1FB
:1000A000404B1B683F4A23F080631360FEF754F80F
:1000B000B86009E0FEF750F80246BB68D31A022B7D
:1000C00002D90323FB7305E0364B1B6803F0006382
:1000D000002BEFD1FB7B002B5FD13B68002B10D1B5
:1000E000304B1B6923F0784323F4FE437A6892680F
:1000F00011027A68D268D2060A432A4913430B6177
:1001000027E03B68012B12D1264B1B6923F4C00367
:1001100023F4FE437A68926811027A6812695208E1
:10012000013A52050A431F4913430B6111E01D4B6D
:100130001B6923F0C06323F4FE437A6892681102BE
:100140007A6852695208013A52060A431549134324
:100150000B61144B1B68134A43F080631360FDF777
:10016000FBFFB86009E0FDF7F7FF0246BB68D31A52
:10017000022B02D90323FB7305E00A4B1B6803F033
:100180000063002BEFD0FB7B002B06D1054B1A69D7
:100190007B689B69034913430B61FB7B184610374F
:1001A000BD4680BD0010024080B582B000AF7860CF
:1001B0007B68002B01D1012340E07B68DB6F002BC3
:1001C00006D17B68002283F878207868FDF7AEFDC1
:1001D0007B682422DA677B681B681A687B681B6867
:1001E00022F001021A607B685B6A002B02D07868FB
:1001F00000F002FC786800F079F90346012B01D188
:1002000001231BE07B681B685A687B681B6822F42B
:1002100090425A607B681B689A687B681B6822F072
:100220002A029A607B681B681A687B681B6842F028
:1002300001021A60786800F081FC0346184608370E
:10024000BD4680BD80B58AB002AFF860B9603B6042
:100250001346FB80FB68DB6F202B78D1BB68002B3B
:1002600002D0FB88002B01D1012371E0FB68002242
:10027000C3F88420FB682122DA67FDF76DFF7861FF
:10028000FB68FA88A3F85020FB68FA88A3F852208C
:10029000FB689B68B3F5805F08D1FB681B69002B86
:1002A00004D10023FB61BB68BB6103E0BB68FB6159
:1002B0000023BB6130E03B6800937B690022802112
:1002C000F86800F0E3FC0346002B04D0FB68202212
:1002D000DA6703233CE0FB69002B0BD1BB691A886A
:1002E000FB681B68C2F3080292B21A85BB6902332D
:1002F000BB6108E0FB691A78FB681B6892B21A853B
:10030000FB690133FB61FB68B3F852309BB2013BE0
:100310009AB2FB68A3F85220FB68B3F852309BB244
:10032000002BC8D13B6800937B6900224021F8680C
:1003300000F0ACFC0346002B04D0FB682022DA67F7
:10034000032305E0FB682022DA67002300E0022394
:1003500018462037BD4680BD80B58AB002AFF86030
:10036000B9603B601346FB80FB68D3F88030202BDC
:1003700040F0B680BB68002B02D0FB88002B01D177
:100380000123AEE0FB680022C3F88420FB68222230
:10039000C3F88020FB6800221A66FDF7DDFE786155
:1003A000FB68FA88A3F85820FB68FA88A3F85A205B
:1003B000FB689B68B3F5805F0ED1FB681B69002B5F
:1003C00005D1FB6840F2FF12A3F85C202DE0FB682A
:1003D000FF22A3F85C2028E0FB689B68002B0DD16E
:1003E000FB681B69002B04D1FB68FF22A3F85C208B
:1003F0001BE0FB687F22A3F85C2016E0FB689B688B
:10040000B3F1805F0DD1FB681B69002B04D1FB6841
:100410007F22A3F85C2008E0FB683F22A3F85C2061
:1004200003E0FB680022A3F85C20FB68B3F85C30B3
:100430007B82FB689B68B3F5805F08D1FB681B6912
:10044000002B04D10023FB61BB68BB6103E0BB68E8
:10045000FB610023BB6137E03B6800937B690022AE
:100460002021F86800F012FC0346002B05D0FB6841
:100470002022C3F88020032333E0FB69002B0CD13A
:10048000FB681B689B8C9AB27B8A13409AB2BB694B
:100490001A80BB690233BB610DE0FB681B689B8C53
:1004A0009BB2DAB27B8ADBB21340DAB2FB691A7014
:1004B000FB690133FB61FB68B3F85A309BB2013B27
:1004C0009AB2FB68A3F85A20FB68B3F85A309BB283
:1004D000002BC1D1FB682022C3F88020002300E05C
:1004E000022318462037BD4680BD00002DE9B04FDD
:1004F0008AB000AFF860002387F82230FB689A6862
:10050000FB681B691A43FB685B691A43FB68DB697C
:1005100013437B62FB681B681A68A54B1340FA689B
:100520001268796A0B431360FB681B685B6823F4ED
:100530004051FB68DA68FB681B680A435A60FB6835
:100540009B697B62FB681B689A4A934204D0FB68F4
:100550001B6A7A6A13437B62FB681B689B6823F4FF
:100560003061FB681B687A6A0A439A60FB681B6803
:10057000914A934226D1914BD3F8883003F003037C
:10058000032B1BD801A252F823F000BF9D050108E0
:10059000AD050108A5050108B5050108012387F887
:1005A0002330D6E0022387F82330D2E0042387F8F3
:1005B0002330CEE0082387F82330CAE0102387F8E1
:1005C0002330C6E0FB681B687D4A934238D17B4BE1
:1005D000D3F8883003F00C030C2B2DD801A252F86D
:1005E00023F000BF19060108390601083906010881
:1005F00039060108290601083906010839060108EB
:1006000039060108210601083906010839060108E2
:100610003906010831060108002387F8233098E0E5
:10062000022387F8233094E0042387F8233090E0F6
:10063000082387F823308CE0102387F8233088E0E4
:10064000FB681B685F4A934225D15C4BD3F8883026
:1006500003F03003302B16D0302B18D8202B0AD0C3
:10066000202B14D8002B02D0102B08D00FE0002331
:1006700087F823306DE0022387F8233069E00423F4
:1006800087F8233065E0082387F8233061E01023E2
:1006900087F823305DE0FB681B684B4A934225D105
:1006A000464BD3F8883003F0C003C02B16D0C02BC4
:1006B00018D8802B0AD0802B14D8002B02D0402BC6
:1006C00008D00FE0002387F8233042E0022387F8A8
:1006D00023303EE0042387F823303AE0082387F8EC
:1006E000233036E0102387F8233032E0FB681B68A4
:1006F000304A93422AD1314BD3F8883003F4406317
:10070000B3F5406F1AD0B3F5406F1BD8B3F5006F47
:100710000CD0B3F5006F15D8002B03D0B3F5806F64
:1007200008D00FE0002387F8233012E0022387F877
:1007300023300EE0042387F823300AE0082387F8EB
:10074000233006E0102387F8233002E0102387F8D7
:100750002330FB681B68174A934240F08B8097F860
:100760002330082B34D801A252F823F09107010856
:10077000D107010899070108D10701089F0701085F
:10078000D1070108D1070108D1070108A70701080F
:10079000FFF750F9F86121E00C4BFB611EE0FFF719
:1007A000B1F8F8611AE04FF40043FB6116E000BFB6
:1007B000F369FFEF00800040003801400010024064
:1007C0000044004000480040004C00400024F40079
:1007D0000023FB61012387F8223000BFFB69002B57
:1007E00000F0FA80FB685A6813465B001344FA690C
:1007F0009A4205D3FB685B681B03FA699A4203D9E6
:10080000012387F82230E7E0FB6900221C461546E9
:100810004FF000024FF000032B0243EA1463220260
:10082000F9684968490800208846814612EB080AA1
:1008300043EB090BFB685B6800223B607A60D7E9F9
:10084000002350465946FCF71BF902460B46134657
:10085000BB61BB69B3F5407F08D3BB69B3F5801FAB
:1008600004D2FB681B68BA69DA60B5E0012387F837
:100870002230B1E0FB68DB69B3F5004F5DD197F83A
:100880002330082B27D801A252F823F0B108010821
:10089000B9080108C1080108D7080108C7080108FC
:1008A000D7080108D7080108D7080108CF080108B0
:1008B000FFF7C0F8F86114E0FFF7D2F8F86110E034
:1008C0004C4BFB610DE0FFF71DF8F86109E04FF4B8
:1008D0000043FB6105E00023FB61012387F8223020
:1008E00000BFFB69002B77D0FB695A00FB685B688F
:1008F0005B081A44FB685B68B2FBF3F3BB61BB693E
:100900000F2B16D9BB69B3F5803F12D2BB699BB2DE
:1009100023F00F03FB82BB695B089BB203F0070364
:100920009AB2FB8A1343FB82FB681B68FA8ADA607F
:1009300052E0012387F822304EE097F82330082B4D
:1009400027D801A252F823F06D09010875090108A2
:100950007D09010893090108830901089309010829
:1009600093090108930901088B090108FFF762F850
:10097000F86114E0FFF774F8F86110E01D4BFB61BB
:100980000DE0FEF7BFFFF86109E04FF40043FB61A3
:1009900005E00023FB61012387F8223000BFFB69DB
:1009A000002B19D0FB685B685A08FB691A44FB6886
:1009B0005B68B2FBF3F3BB61BB690F2B09D9BB6961
:1009C000B3F5803F05D2BB699AB2FB681B68DA6059
:1009D00002E0012387F82230FB6800229A66FB6858
:1009E0000022DA6697F8223018462837BD46BDE85F
:1009F000B08F00BF0024F40080B483B000AF7860F3
:100A00007B685B6A03F00803002B0AD07B681B68D5
:100A10005B6823F400417B685A6B7B681B680A4360
:100A20005A607B685B6A03F00103002B0AD07B6885
:100A30001B685B6823F400317B689A6A7B681B68DB
:100A40000A435A607B685B6A03F00203002B0AD0FA
:100A50007B681B685B6823F480317B68DA6A7B689B
:100A60001B680A435A607B685B6A03F00403002B2F
:100A70000AD07B681B685B6823F480217B681A6B53
:100A80007B681B680A435A607B685B6A03F010034B
:100A9000002B0AD07B681B689B6823F480517B681D
:100AA0009A6B7B681B680A439A607B685B6A03F0F9
:100AB0002003002B0AD07B681B689B6823F400513D
:100AC0007B68DA6B7B681B680A439A607B685B6AA9
:100AD00003F04003002B1AD07B681B685B6823F48B
:100AE00080117B681A6C7B681B680A435A607B68BC
:100AF0001B6CB3F5801F0AD17B681B685B6823F40D
:100B0000C0017B685A6C7B681B680A435A607B682B
:100B10005B6A03F08003002B0AD07B681B685B686C
:100B200023F400217B689A6C7B681B680A435A6037
:100B300000BF0C37BD465DF8047B704780B598B0A8
:100B400002AF78607B680022C3F88420FDF704FBC5
:100B500078657B681B681B6803F00803082B2ED19F
:100B60006FF07E4300937B6D00224FF40011786894
:100B700000F08CF80346002B21D07B681B68BB6318
:100B8000BB6B53E8003F7B637B6B23F080033B65CB
:100B90007B681B681A463B6D7B643A64396C7A6CDF
:100BA00041E80023FB63FB6B002BE6D17B6820222E
:100BB000DA677B68002283F87820032362E07B6891
:100BC0001B681B6803F00403042B49D16FF07E43BC
:100BD00000937B6D00224FF48001786800F056F896
:100BE0000346002B3CD07B681B687B627B6A53E822
:100BF000003F3B623B6A23F49073FB647B681B6895
:100C00001A46FB6C3B63FA62F96A3A6B41E80023CF
:100C1000BB62BB6A002BE6D17B681B6808333B6173
:100C20003B6953E8003FFB60FB6823F00103BB64B2
:100C30007B681B680833BA6CFA61BB61B969FA69F1
:100C400041E800237B617B69002BE5D17B68202292
:100C5000C3F880207B68002283F87820032311E00A
:100C60007B682022DA677B682022C3F880207B68BB
:100C700000221A667B6800225A667B68002283F88D
:100C80007820002318465837BD4680BD80B584B013
:100C900000AFF860B9603B601346FB7149E0BB6987
:100CA000B3F1FF3F45D0FDF757FA02463B68D31A30
:100CB000BA699A4202D3BB69002B01D1032348E0F1
:100CC000FB681B681B6803F00403002B31D0FB6832
:100CD0001B68DB6903F00803082B10D1FB681B6855
:100CE00008221A62F86800F038F8FB680822C3F896
:100CF0008420FB68002283F87820012329E0FB6828
:100D00001B68DB6903F40063B3F5006F11D1FB6866
:100D10001B684FF400621A62F86800F01EF8FB6866
:100D20002022C3F88420FB68002283F87820032364
:100D30000FE0FB681B68DA69BB681340BA689A4227
:100D40000CBF01230023DBB21A46FB799A42A6D0DE
:100D5000002318461037BD4680BD80B495B000AF63
:100D600078607B681B687B637B6B53E8003F3B6369
:100D70003B6B23F49073FB647B681B681A46FB6C27
:100D80003B64FA63F96B3A6C41E80023BB63BB6BCD
:100D9000002BE6D17B681B6808333B623B6A53E853
:100DA000003FFB61FB6923F00103BB647B681B68A8
:100DB0000833BA6CFA62BB62B96AFA6A41E8002386
:100DC0007B627B6A002BE5D17B681B6E012B18D1FF
:100DD0007B681B68FB60FB6853E8003FBB60BB6837
:100DE00023F010037B647B681B681A467B6CBB6135
:100DF0007A617969BA6941E800233B613B69002B5C
:100E0000E6D17B682022C3F880207B6800221A6626
:100E10007B6800229A6600BF5437BD465DF8047BAC
:100E200070470000002310B50446C0E90033C0E954
:100E30000433836081814366C2818361194608223D
:100E40005C3000F0E5F9054B6362054BA362054B8E
:100E5000E362054B2462236310BD00BF61100108EB
:100E600083100108BB100108DF100108024A034982
:100E7000034800F069B800BF30000020A91B01083A
:100E80003C00002041680C4B994210B5044601D04B
:100E900000F08AFEA168094B994202D0204600F07A
:100EA00083FEE168064B994204D02046BDE810401D
:100EB00000F07ABE10BD00BF94020020FC020020AA
:100EC0006403002010B50B4B0B4C0C4A1A602046F3
:100ED00000220421FFF7A6FF04F168000122092186
:100EE000FFF7A0FF04F1D0000222BDE8104012215C
:100EF000FFF798BFCC030020940200206D0E01087C
:100F0000014800F0FDB900BFD5030020014800F002
:100F1000F8B900BFD503002010B50446FFF7F0FF75
:100F2000236A1BB1BDE81040FFF7F0BF044B2362FA
:100F3000044B1B68002BF5D1FFF7C4FFF2E700BF9D
:100F4000850E0108CC0300202DE9F84307468846AA
:100F500014460026D4E90195B9F1010905D52468A4
:100F6000002CF7D13046BDE8F883AB89012B07D9B7
:100F7000B5F90E30013303D029463846C047064341
:100F80006835E9E70FB407B5064904AB086853F8BC
:100F9000042B8168019300F0D7FA03B05DF804EBED
:100FA00004B0704788000020036A70B58468054665
:100FB0000E460BB9FFF7B0FF636EDB0705D4A389BC
:100FC000980502D4A06D00F09BF9A389190713D5E9
:100FD00023698BB1013EA36816F8011F013BA36092
:100FE000E9B9002B2EDA22460A21284600F07BF8C8
:100FF000013007D00A2507E02146284600F0B0F866
:101000000028E7D04FF0FF35636EDA0705D4A389D7
:101010009B0502D4A06D00F074F9284670BD002B2A
:1010200004DAA2699A4206DC0A2904D023685A1C11
:1010300022601970CFE72246284600F054F80130AC
:10104000C9D1DFE723680A255A1C22601D70DBE73F
:10105000024B01461868FFF7A7BF00BF88000020B9
:1010600010B50C46B1F90E1000F0FCF80028ABBF2B
:10107000636DA3891B1823F48053ACBF6365A38100
:1010800010BD2DE9F0411F468B89DB0505460C4656
:10109000164605D5B1F90E100223002200F0D0F853
:1010A000A389B4F90E1023F48053A38132463B4642
:1010B0002846BDE8F04100F0E7B810B50C46B1F99C
:1010C0000E1000F0BDF8431CA38915BF606523F422
:1010D000805343F48053A38118BFA38110BDB1F99D
:1010E0000E1000F09DB8F8B50E461446054618B12E
:1010F000036A0BB9FFF710FFA369A360A3891A075E
:1011000025D523691BB323682269981A6369F6B24F
:101110008342374604DC2146284600F045FDE0B90D
:10112000A368013BA36023685A1C22601E70626999
:10113000431C9A4204D0A389DB0706D50A2E04D1AA
:101140002146284600F030FD38B93846F8BD214622
:10115000284600F005F80028D5D04FF0FF37F4E717
:1011600038B52A4B054618680C4618B1036A0BB906
:10117000FFF7D2FEA389B4F90C20180722D4D906B0
:1011800007D409232B6042F04003A3814FF0FF30C6
:1011900034E0580712D5616B41B104F14403994220
:1011A00002D0284600F0AEF800236363A38923F041
:1011B0002403A3810023636023692360A38943F090
:1011C0000803A38123694BB9A38903F42073B3F502
:1011D000007F03D02146284600F034FDA089B4F9F1
:1011E0000C2010F001030AD00023A36063695B4266
:1011F000A361236943B910F08000C4D138BD8107D1
:1012000058BF6369A360F4E70020F7E78800002077
:1012100002440346934200D1704703F8011BF9E7EB
:1012200038B5064D0023044608462B60FCF781FEC6
:10123000431C02D12B6803B1236038BDD0030020CA
:1012400038B5074D04460846114600222A601A4662
:10125000FCF796FE431C02D12B6803B1236038BD16
:10126000D003002038B5074D044608461146002239
:101270002A601A46FCF724FE431C02D12B6803B1F6
:10128000236038BDD003002038B5074D044608461A
:10129000114600222A601A46FCF72FFE431C02D199
:1012A0002B6803B1236038BDD0030020014B1868C0
:1012B000704700BF8800002070B50D4D0D4C641BB9
:1012C000A4100026A64209D10B4D0C4C00F028FDBD
:1012D000641BA4100026A64205D170BD55F8043B3E
:1012E00098470136EEE755F8043B98470136F2E798
:1012F00094220108942201089422010898220108EE
:101300007047704737B5002944D051F8043C01902C
:10131000002BA1F10404B8BFE41800F0DFF81E4A66
:101320000198136833B96360146003B0BDE83040BE
:1013300000F0DAB8A34208D9256861198B4201BFD1
:1013400019685B6849192160EDE71A465B680BB1C3
:10135000A342FAD911685518A5420BD1246821443B
:101360005418A3421160E0D11C685B6853600C44C0
:101370001460DAE702D90C230360D6E72568611907
:101380008B4204BF19685B68636004BF4919216020
:101390005460CAE703B030BDD803002070B50E4ECC
:1013A0000C463168054611B900F0AAFC30602146B0
:1013B000284600F0A5FC431C0AD0C41C24F00304FA
:1013C000A04207D0211A284600F09AFC013001D132
:1013D0004FF0FF34204670BDDC0300202DE9F843B8
:1013E000CD1C25F0030508350C2D38BF0C25002D2C
:1013F000074601DBA94205D90C233B600026304695
:10140000BDE8F883DFF8D08000F068F8D8F8003045
:101410001C465CBB29463846FFF7C0FF431C044608
:1014200055D1D8F800402646002E45D1002C48D092
:1014300023683146384604EB030900F061FC81451E
:101440003FD121686D1A29463846FFF7A7FF0130C2
:1014500037D023682B442360D8F80030002B38D0D5
:101460005A68A2422BD100225A600FE02268521B18
:101470001FD40B2A17D96119A342256018BF5960E0
:10148000636808BFC8F8001062514B60384604F129
:101490000B0600F029F826F00706231DF21AAED03D
:1014A0009B1BA350ABE7A3426268DDD1C8F80020C4
:1014B000ECE723466468ACE734467668B4E7134645
:1014C000CCE70C233B60384600F00EF897E7256028
:1014D000DCE75B60FFDE00BFD80300200148FFF7B8
:1014E0000FBF00BFD40300200148FFF70ABF00BFB1
:1014F000D40300209368013B002B10B4936008DAFA
:101500009469A34201DB0A2903D15DF8044BFFF77C
:10151000EABD1368581C1060197008465DF8044B4A
:101520007047F8B506460F461446D518AC4201D1AF
:10153000002007E014F8011B3A463046FFF7DAFFB7
:10154000431CF3D1F8BD00002DE9F04F0D469DB0CE
:1015500014469846064618B1036A0BB9FFF7DCFC3F
:101560006B6ED90705D4AB899A0502D4A86DFFF735
:10157000C7FEAB891B0701D52B699BB929463046AD
:10158000FFF7EEFD70B16B6EDC0704D54FF0FF3056
:101590001DB0BDE8F08FAB899805F7D4A86DFFF7B3
:1015A000B0FEF3E70023099320238DF82930CDF80E
:1015B0000C803023DFF8B0818DF82A304FF001091C
:1015C00023469A4613F8012B0AB1252AF9D1BAEB22
:1015D000040B0BD05B46224629463046FFF7A1FF9D
:1015E000013000F0A980099A5A4409929AF8003013
:1015F000002B00F0A18000234FF0FF32CDE905233E
:101600000AF1010A049307938DF853301A93544654
:10161000052214F8011B5448FBF7E2F9049AD8B9E3
:10162000D10644BF20238DF85330130744BF2B232A
:101630008DF853309AF800302A2B15D0079A54466B
:1016400000204FF00A0C214611F8013B303B092BDA
:101650004DD9B0B1079214E0A0EB080309FA03F3E7
:1016600013430493A246D2E7039B191D1B68039101
:10167000002BBBBF5B4242F0020207930793B8BF47
:10168000049223782E2B0CD163782A2B34D1039B20
:101690001A1D1B680392002BB8BF4FF0FF330234B2
:1016A0000593DFF8D4A0217803225046FBF798F980
:1016B00038B1049BA0EB0A0040228240134301345E
:1016C000049314F8011B29488DF828100622FBF713
:1016D00087F900283FD0264B1BBB039B073323F021
:1016E000070308330393099B3B44099368E70CFB0A
:1016F00002320C460120A6E7002301340593194667
:101700004FF00A0C204610F8012B303A092A03D971
:10171000002BC6D00591C4E70CFB01210446012330
:10172000F0E703AB00932A46124B04A93046AFF30F
:1017300000800746781CD6D16B6ED90705D4AB89DB
:101740009A0502D4A86DFFF7DCFDAB895B063FF577
:101750001DAF09981CE703AB00932A46054B04A96B
:10176000304600F079F8E4E75822010862220108C7
:1017700000000000231501085E2201082DE9F04752
:10178000164699468A680B69DDF820809342B8BFF7
:101790001346336091F8432007460C460AB10133E3
:1017A00033602368990642BF33680233336025688B
:1017B00015F0060506D104F1190AE36832689B1A90
:1017C000AB4226DC94F84320131E226818BF012385
:1017D00092062BD404F1430249463846C0470130F3
:1017E0001ED02368226903F00603042B02BFE568BC
:1017F0003368ED1AA3680CBF25EAE575002593420E
:10180000C4BF9B1AED1800261A34B5421AD1002025
:1018100008E00123524649463846C047013003D10B
:101820004FF0FF30BDE8F0870135C6E7E1185A1CDC
:10183000302081F84300224494F8451082F8431088
:101840000233C7E70123224649463846C0470130E4
:10185000E6D00136D9E700002DE9FF470F7E0C9D49
:10186000782F914680460C469A4601F1430207D8EC
:10187000622F0AD8002F00F0D480582F00F0C080CB
:1018800004F1420584F842703AE0A7F16303152B96
:10189000F6D801A151F823F0F11801080519010843
:1018A00081180108811801088118010881180108B0
:1018B000051901088118010881180108811801081B
:1018C00081180108091A010831190108C319010812
:1018D00081180108811801082B1A010881180108D4
:1018E000311901088118010881180108CB19010874
:1018F0002B681A1D1B682A6004F1420584F84230E7
:1019000001239FE020682B68070603F1040129608A
:1019100001D51E6803E04606FBD5B3F90060002E32
:1019200003DA2D23764284F843305A480A2312E022
:101930002B682068191D2960050601D51E6802E084
:101940004106FBD51E8853486F2F0CBF08230A237E
:10195000002184F843106568A560002DA2BF2168AE
:1019600021F0040121600EB9002D4BD01546B6FBC5
:10197000F3F103FB1167C75D05F8017D3746BB42F4
:101980000E46F4D9082B0BD12368DE0708D523694E
:1019900061689942DEBF302305F8013C05F1FF354F
:1019A000521B2261CDF800A04B4603AA21464046B7
:1019B000FFF7E4FE01304AD14FF0FF3004B0BDE83C
:1019C000F087236843F0200323603348782784F8A6
:1019D0004570236829681F0651F8046B02D45F061E
:1019E00048BFB6B2DF0748BF43F02003296048BFB5
:1019F00023601EB9236823F0200323601023A7E788
:101A00002448E4E71546BDE72B6826686169181D80
:101A1000286035061B6801D5196002E07006FBD509
:101A20001980002323611546BCE72B681A1D2A6024
:101A30001D68626800212846FAF7D2FF08B1401BF2
:101A4000606063682361002384F84330AAE7236958
:101A50002A4649464046D0470130ADD023689B070F
:101A600013D4E068039B9842B8BF1846A6E7012349
:101A7000324649464046D04701309DD00135E368A3
:101A800003995B1AAB42F2DCEBE7002504F119067F
:101A9000F5E700BF692201087A2201088A892DE949
:101AA000F041054610070C4658D44B68002B05DC66
:101AB0000B6C002B02DC0020BDE8F081E66A002EF2
:101AC000F9D0002312F480522F68216A2B6032D0A3
:101AD000606DA3895A0705D56368C01A636B0BB1A3
:101AE000236CC01A00230246E66A216A2846B047E2
:101AF000431CA38906D129681D292BD8294A0A41EC
:101B0000D60727D400226260D9042269226004D556
:101B1000421C01D12B6803B96065616B2F600029FD
:101B2000C9D004F14403994202D02846FFF7EAFBEA
:101B300000206063C0E701232846B047411CC8D19C
:101B40002B68002BC5D01D2B01D0162B01D12F6087
:101B5000B1E7A38943F04003A381ADE70F69002FEC
:101B6000A9D093070E6808BF4B690F6018BF002308
:101B7000A6EB07088B60B8F1000F9CDD216AA66A0E
:101B800043463A462846B047002806DCA38943F07E
:101B90004003A3814FF0FF308EE70744A8EB000815
:101BA000E9E700BFFEFFBFDF38B50B6905460C460D
:101BB00013B90025284638BD18B1036A0BB9FFF7E1
:101BC000ABF9B4F90C30002BF3D0626ED00704D41B
:101BD000990502D4A06DFFF793FB28462146FFF735
:101BE0005DFF636EDA070546E4D4A3899B05E1D463
:101BF000A06DFFF786FBDDE770B50C46B1F90E105E
:101C0000002996B015461E460DDAA38913F0800F01
:101C10004FF000010CBF4FF480634023002031607F
:101C20002B6016B070BD6A4600F048F80028ECDB67
:101C3000019901F47041A1F50053594259414FF403
:101C40008063EBE78B8973B59D0706460C4607D585
:101C500004F14703236023610123636102B070BD77
:101C600001AB6A46FFF7C8FF009905463046FFF70B
:101C7000B5FB48B9B4F90C309A05EFD423F003034F
:101C800043F00203A381E3E7A389206043F08003CC
:101C9000A381009B6361019B20615BB1B4F90E10CD
:101CA000304600F01DF828B1A38923F0030343F068
:101CB0000103A381A3891D43A581CFE738B5074D53
:101CC00000230446084611462B60FCF73EF9431CEE
:101CD00002D12B6803B1236038BD00BFD0030020C0
:101CE00038B5064D0023044608462B60FCF73DF945
:101CF000431C02D12B6803B1236038BDD003002000
:101D000038B5064D0023044608462B60FCF746F91B
:101D1000431C02D12B6803B1236038BDD0030020DF
:101D2000F8B500BFF8BC08BC9E467047F8B500BFC8
:081D3000F8BC08BC9E46704798
:101D380057616974696E6720666F722074686520E0
:101D48004F544120646174612E2E2E0D0000000056
:101D580053656E64696E67204E41434B0D00000069
:101D680053656E64696E672041434B0D00000000A7
:101D78004F54415F53544154455F49444C452E2EBE
:101D88002E0D00005265636569766564204F5441E5
:101D980020535441525420436F6D6D616E640D00A1
:101DA8005265636569766564204F544120486561D2
:101DB8006465722E2046572053697A65203D202598
:101DC8006C640D0A000000005B256C642F256C64B0
:101DD8005D0D0A005265636569766564204F54415C
:101DE80020454E4420436F6D6D616E640D00000008
:101DF80056616C69646174696E67207468652072E5
:101E0800656365697665642042696E6172792E2E14
:101E18002E0D00004552524F523A20465720435249
:101E280043204D69736D617463680D00446F6E657E
:101E38002121210D000000004368756E6B27732077
:101E4800435243206D69736D61746368205B43611D
:101E58006C20435243203D2030782530386C585D43
:101E6800205B52656320435243203D203078253063
:101E7800386C585D0D0A00005265636569766564C3
:101E8800206D6F72652064617461207468616E20D2
:101E980065787065637465642E2045787065637431
:101EA8006564203D2025642C20526563656976654C
:101EB80064203D2025640D0A00000000457261730E
:101EC800696E672074686520536C6F7420256420E0
:101ED800466C617368206D656D6F72792E2E2E0DBC
:101EE8000A000000466C61736820457261736520C2
:101EF8004572726F720D0000466C617368205772EC
:101F0800697465204572726F720D0000536C6F74AE
:101F180020256420697320617661696C61626C6553
:101F280020666F72204F5441207570646174650D8E
:101F38000A000000536C6F74207461626C6520465F
:101F48006C617368205772697465204572726F728C
:101F58000D000000476F6E6E61204A756D70207429
:101F68006F204170706C69636174696F6E0D000059
:101F7800507265737320426F6F7420627574746F4A
:101F88006E20746F2074726967676572204F5441C0
:101F9800207570646174652E2E2E0D005374617265
:101FA80074696E67204669726D7761726520446F47
:101FB800776E6C6F61642121210D00004F54412020
:101FC800557064617465203A204552524F52212160
:101FD800212048414C542121210D00004669726D91
:101FE8007761726520757064617465206973206417
:101FF8006F6E65212121205265626F6F74696E676B
:102008002E2E2E0D0000000000002110422063300B
:102018008440A550C660E770088129914AA16BB138
:102028008CC1ADD1CEE1EFF13112100273325222E0
:10203800B5529442F772D662399318837BB35AA388
:10204800BDD39CC3FFF3DEE36224433420040114B0
:10205800E664C774A44485546AA54BB528850995D8
:10206800EEE5CFF5ACC58DD5533672261116300680
:10207800D776F6669556B4465BB77AA71997388728
:10208800DFF7FEE79DD7BCC7C448E5588668A77840
:102098004008611802282338CCC9EDD98EE9AFF978
:1020A800488969990AA92BB9F55AD44AB77A966A20
:1020B800711A500A333A122AFDDBDCCBBFFB9EEBC8
:1020C800799B588B3BBB1AABA66C877CE44CC55CF0
:1020D800222C033C600C411CAEED8FFDECCDCDDD18
:1020E8002AAD0BBD688D499D977EB66ED55EF44EC0
:1020F800133E322E511E700E9FFFBEEFDDDFFCCF68
:102108001BBF3AAF599F788F8891A981CAB1EBA1BB
:102118000CD12DC14EF16FE18010A100C230E32037
:102128000450254046706760B9839893FBA3DAB3DF
:102138003DC31CD37FE35EF3B1029012F322D23287
:102148003542145277625672EAB5CBA5A8958985AF
:102158006EF54FE52CD50DC5E234C324A0148104D7
:102168006674476424540544DBA7FAB79987B8977F
:102178005FE77EF71DC73CD7D326F2369106B01627
:1021880057667676154634564CD96DC90EF92FE93F
:10219800C899E9898AB9ABA9445865480678276877
:1021A800C018E1088238A3287DCB5CDB3FEB1EFB1F
:1021B800F98BD89BBBAB9ABB754A545A376A167AC7
:1021C800F10AD01AB32A923A2EFD0FED6CDD4DCDEF
:1021D800AABD8BADE89DC98D267C076C645C454C17
:1021E800A23C832CE01CC10C1FEF3EFF5DCF7CDFBF
:1021F8009BAFBABFD98FF89F176E367E554E745E67
:10220800932EB23ED10EF01E000000000000000028
:102218000102030406070809000000000102030484
:10222800A0860100400D0300801A060000350C004E
:1022380040420F0080841E0000093D0000127A0011
:102248000024F40000366E010048E801006CDC024E
:10225800232D302B2000686C4C0065666745464787
:10226800003031323334353637383941424344450A
:102278004600303132333435363738396162636479
:042288006566000087
:08228C0024A8FF7F01000000FF
:04229400C5C90008B0
:04229800A1C90008D0
:10229C0000E0070800093D001000000001000000EC
:1022AC000000000000000000000000000000000022
:1022BC000100000000000000000000000000000011
